:100000000C9446000C945D000C945D000C945D0013
:100010000C945D000C945D000C945D000C945D00EC
:100020000C945D000C945D000C945D000C945D00DC
:100030000C945D000C945D000C945D000C945D00CC
:100040000C945D000C945D000C945D000C945D00BC
:100050000C945D000C945D000C945D000C945D00AC
:100060000C945D000C945D000C945D000C945D009C
:100070000C945D000C945D000C945D000C945D008C
:100080000C945D000C945D000C945D0011241FBE67
:10009000CFEFD0E4DEBFCDBF11E0A0E0B1E0E0EFF4
:1000A000F1E000E00BBF02C007900D92AE30B10747
:1000B000D9F70E94C0000C94F6000C9400009FEF4A
:1000C00094B99BB19F7C9BB985B9000000000000EA
:1000D0005E9A000000000000000000000000000028
:1000E0000000000000005E98089514B85C985D9AC6
:1000F0000000000000005E9A000000000000000008
:1001000000000000000083B100005E98881F88276F
:10011000881F08959FEF94B95C9A5D9800000000D5
:10012000000085B90000000000005E9A0000000099
:1001300000000000000000000000000000000000BF
:100140005E980895EF92FF921F93CF93DF93EC0197
:1001500010E07E01E10EF11CF7018081811106C0E3
:10016000DF91CF911F91FF90EF9008950E9475004D
:100170008111FCCFF70180810E948A001F5FE9CFC7
:100180008FEF8AB981E08BB90E9475008111FCCF95
:1001900088E30E945F000E9475008111FCCF8CE013
:1001A0000E945F000E9475008111FCCF81E00E94D7
:1001B0005F000E9475008111FCCF86E00E945F0005
:1001C0000E9475008111FCCF80E80E945F0080E0F2
:1001D00091E00E94A200000000000000000000006A
:1001E00000000000000000000000F5CFF894FFCFF1
:0E01F00048656C6C6F20776F726C64210000A4
:00000001FF
