:100000000C9446000C945D000C945D000C945D0013
:100010000C945D000C945D000C94C0000C945D0089
:100020000C945D000C945D000C945D000C945D00DC
:100030000C945D000C945D000C945D000C945D00CC
:100040000C945D000C945D000C945D000C945D00BC
:100050000C945D000C945D000C945D000C945D00AC
:100060000C945D000C945D000C945D000C945D009C
:100070000C945D000C945D000C945D000C945D008C
:100080000C945D000C945D000C945D0011241FBE67
:10009000CFEFD0E4DEBFCDBF11E0A0E0B1E0E4E3FC
:1000A000F2E000E00BBF02C007900D92AE30B10746
:1000B000D9F70E94DC000C9418010C9400009FEF0B
:1000C00094B99BB19F7C9BB985B9000000000000EA
:1000D0005E9A000000000000000000000000000028
:1000E0000000000000005E98089514B85C985D9AC6
:1000F0000000000000005E9A000000000000000008
:1001000000000000000083B100005E98881F88276F
:10011000881F08959FEF94B95C9A5D9800000000D5
:10012000000085B90000000000005E9A0000000099
:1001300000000000000000000000000000000000BF
:100140005E980895EF92FF921F93CF93DF93EC0197
:1001500010E07E01E10EF11CF7018081811106C0E3
:10016000DF91CF911F91FF90EF9008950E9475004D
:100170008111FCCFF70180810E948A001F5FE9CFC7
:100180001F921FB61F9211248F93309B0EC0000048
:10019000000000000000000000000000000000005F
:1001A0000000319B07C081E08BB98F911F901FBE6B
:1001B0001F9018951BB8F9CF80E88FBF84E080931B
:1001C000680081E080936D008AB98BB90E94750048
:1001D0008111FCCF88E30E945F000E9475008111AD
:1001E000FCCF8CE00E945F000E9475008111FCCF63
:1001F00081E00E945F000E9475008111FCCF86E0C3
:100200000E945F000E9475008111FCCF80E80E946F
:100210005F0080E091E00E94A2000000000000006A
:100220000000000000000000000000000000F5CF0A
:04023000F894FFCF70
:0E02340048656C6C6F20776F726C642100005F
:00000001FF
