:100000000C9446000C9450000C9450000C9450003A
:100010000C9450000C9450000C9450000C94500020
:100020000C9450000C9450000C9450000C94500010
:100030000C9450000C9450000C9450000C94500000
:100040000C9450000C9450000C9450000C945000F0
:100050000C9450000C9450000C9450000C945000E0
:100060000C9450000C9450000C9450000C945000D0
:100070000C9450000C9450000C9450000C945000C0
:100080000C9450000C9450000C94500011241FBE8E
:10009000CFEFD0E4DEBFCDBF0E9452000C946A00C7
:1000A0000C94000000D0CDB7DEB781E08AB91BB850
:1000B00021E01A82198289819A81883E9D4F20F021
:1000C0008BB182278BB9F5CF89819A8101969A836A
:0800D0008983F1CFF894FFCF02
:00000001FF
