:100000000C9446000C9450000C9450000C9450003A
:100010000C9450000C9450000C9450000C94500020
:100020000C9450000C9450000C9450000C94500010
:100030000C9450000C9450000C9450000C945200FE
:100040000C9450000C9450000C9450000C945000F0
:100050000C9450000C9450000C9450000C945000E0
:100060000C9450000C9450000C9450000C945000D0
:100070000C9450000C9450000C9450000C945000C0
:100080000C9450000C9450000C94500011241FBE8E
:10009000CFEFD0E4DEBFCDBF0E9465000C947500A9
:1000A0000C9400008F938FB78F939F9385EB93EB06
:1000B00090938500809384008BB191E089278BB960
:1000C0009F918F918FBF8F91189581E08AB990E8A9
:1000D0009FBF80936F0085E08093810085EB93EB59
:0E00E0009093850080938400FFCFF894FFCFAB
:00000001FF
