:100000000C9446000C945D000C945D000C945D0013
:100010000C945D000C945D000C945D000C945D00EC
:100020000C945D000C945D000C945D000C945D00DC
:100030000C945D000C945D000C945D000C945D00CC
:100040000C945D000C945D000C945D000C945D00BC
:100050000C945D000C945D000C945D000C945D00AC
:100060000C945D000C945D000C945D000C945D009C
:100070000C945D000C945D000C945D000C945D008C
:100080000C945D000C945D000C945D0011241FBE67
:10009000CFEFD0E4DEBFCDBF11E0A0E0B1E0E4E9F6
:1000A000F2E000E00BBF02C007900D92AE30B10746
:1000B000D9F70E9408010C9448010C94000015B86F
:1000C00097EF94B96111299A8111289A00000000D4
:1000D00000002A9A662309F436C087E084B900003C
:1000E000000000000000000083B1807F000097EF57
:1000F00094B92A98000000000000000000000000F1
:10010000000000000000000021113CC02A9A662374
:1001100009F428C097E094B9000000000000000036
:10012000000093B192959F70892B97EF94B92A980C
:1001300000000000000000000000000000000000BF
:1001400000000000089585B18F7085B995B1842FA6
:10015000807F892B85B900000000000000000000AE
:1001600080E0C7CF95B19F7095B995B120E1429FCE
:10017000A0011124492B45B9000000000000000037
:100180000000D5CF80E00895482F21E060E080E0B6
:100190000C945F00482F20E060E080E00C945F004A
:1001A000482F20E060E081E00C945F0021E040E017
:1001B00061E081E00E945F00881F8827881F089502
:1001C00020E040E061E081E00E945F00881F882716
:1001D000881F0895EF92FF921F93CF93DF93EC0156
:1001E00010E07E01E10EF11CF7018081811106C053
:1001F000DF91CF911F91FF90EF9008950E94E00052
:100200008111FCCFF70180810E94D0001F5FE9CFF0
:1002100081E08AB98BB90E94D6008111FCCF88E2B7
:100220000E94C4000E94E0008111FCCF88E20E947D
:10023000CA000E94E0008111FCCF8CE00E94CA003D
:100240000E94E0008111FCCF81E00E94CA000E9460
:10025000E0008111FCCF86E00E94CA000E94E0000D
:100260008111FCCF80E80E94CA000E94E000811149
:10027000FCCF80E091E00E94EA0000000000000056
:100280000000000000000000000000000000F5CFAA
:04029000F894FFCF10
:0E02940048656C6C6F2C20776F726C642100D3
:00000001FF
