:100000000C9446000C9450000C9450000C9450003A
:100010000C9450000C9450000C9450000C94500020
:100020000C9450000C9450000C9450000C94500010
:100030000C9450000C9450000C9450000C94500000
:100040000C9450000C9450000C9450000C945000F0
:100050000C9450000C9450000C9450000C945000E0
:100060000C9450000C9450000C9450000C945000D0
:100070000C9450000C9450000C9450000C945000C0
:100080000C9450000C9450000C94500011241FBE8E
:10009000CFEFD0E4DEBFCDBF0E9452000C946800C9
:1000A0000C9400000F92CDB7DEB7198281E08AB9B7
:1000B000589A91E021E04A9907C08981811104C0D2
:1000C0008BB189278BB929834A9BF5CF1982F3CF4E
:0400D000F894FFCFD2
:00000001FF
