:100000000C9446000C9450000C9450000C9450003A
:100010000C9450000C9450000C9450000C94500020
:100020000C9450000C9450000C9450000C94500010
:100030000C9450000C9450000C9450000C945200FE
:100040000C9450000C9450000C9450000C945000F0
:100050000C9450000C9450000C9450000C945000E0
:100060000C9450000C9450000C9450000C945000D0
:100070000C9450000C9450000C9450000C945000C0
:100080000C9450000C9450000C94500011241FBE8E
:10009000CFEFD0E4DEBFCDBF0E945F000C946900BB
:1000A0000C9400008F938FB78F939F938BB191E047
:1000B00089278BB99F918F918FBF8F91189581E080
:1000C0008AB990E89FBF80936F0083E0809381009E
:0600D000FFCFF894FFCF02
:00000001FF
